{
  "contractName": "Election",
  "abi": [
    {
      "constant": true,
      "inputs": [
        {
          "name": "",
          "type": "uint256"
        }
      ],
      "name": "candidatesList",
      "outputs": [
        {
          "name": "",
          "type": "address"
        }
      ],
      "payable": false,
      "stateMutability": "view",
      "type": "function",
      "signature": "0xdf2d5ec7"
    },
    {
      "anonymous": false,
      "inputs": [
        {
          "indexed": true,
          "name": "_id",
          "type": "address"
        }
      ],
      "name": "CandidateRegistered",
      "type": "event",
      "signature": "0xa0ac4f59dabb0ddc4b8b883adda9e055e02c796b2cde2ed80fdb11a38f77e5c9"
    },
    {
      "anonymous": false,
      "inputs": [
        {
          "indexed": true,
          "name": "_to",
          "type": "address"
        },
        {
          "indexed": true,
          "name": "_by",
          "type": "address"
        }
      ],
      "name": "VoteGiven",
      "type": "event",
      "signature": "0x72c969a3287ea36868c4ccff5103a43b84c88936c5340ad55fee54091e9a579b"
    },
    {
      "constant": true,
      "inputs": [],
      "name": "getCandidates",
      "outputs": [
        {
          "name": "",
          "type": "address[]"
        }
      ],
      "payable": false,
      "stateMutability": "view",
      "type": "function",
      "signature": "0x06a49fce"
    },
    {
      "constant": true,
      "inputs": [
        {
          "name": "id",
          "type": "address"
        }
      ],
      "name": "getCandidateInfo",
      "outputs": [
        {
          "name": "",
          "type": "string"
        },
        {
          "name": "",
          "type": "string"
        },
        {
          "name": "",
          "type": "uint256"
        }
      ],
      "payable": false,
      "stateMutability": "view",
      "type": "function",
      "signature": "0x28bde1e1"
    },
    {
      "constant": false,
      "inputs": [
        {
          "name": "name",
          "type": "string"
        },
        {
          "name": "description",
          "type": "string"
        }
      ],
      "name": "register",
      "outputs": [
        {
          "name": "",
          "type": "bool"
        }
      ],
      "payable": false,
      "stateMutability": "nonpayable",
      "type": "function",
      "signature": "0x3ffbd47f"
    },
    {
      "constant": false,
      "inputs": [
        {
          "name": "id",
          "type": "address"
        }
      ],
      "name": "vote",
      "outputs": [
        {
          "name": "",
          "type": "bool"
        },
        {
          "name": "",
          "type": "string"
        }
      ],
      "payable": false,
      "stateMutability": "nonpayable",
      "type": "function",
      "signature": "0x6dd7d8ea"
    }
  ],
  "bytecode": "0x608060405234801561001057600080fd5b50611165806100206000396000f3fe60806040526004361061006d576000357c0100000000000000000000000000000000000000000000000000000000900463ffffffff16806306a49fce1461007257806328bde1e1146100de5780633ffbd47f1461021b5780636dd7d8ea14610392578063df2d5ec714610467575b600080fd5b34801561007e57600080fd5b506100876104e2565b6040518080602001828103825283818151815260200191508051906020019060200280838360005b838110156100ca5780820151818401526020810190506100af565b505050509050019250505060405180910390f35b3480156100ea57600080fd5b5061012d6004803603602081101561010157600080fd5b81019080803573ffffffffffffffffffffffffffffffffffffffff169060200190929190505050610570565b604051808060200180602001848152602001838103835286818151815260200191508051906020019080838360005b8381101561017757808201518184015260208101905061015c565b50505050905090810190601f1680156101a45780820380516001836020036101000a031916815260200191505b50838103825285818151815260200191508051906020019080838360005b838110156101dd5780820151818401526020810190506101c2565b50505050905090810190601f16801561020a5780820380516001836020036101000a031916815260200191505b509550505050505060405180910390f35b34801561022757600080fd5b506103786004803603604081101561023e57600080fd5b810190808035906020019064010000000081111561025b57600080fd5b82018360208201111561026d57600080fd5b8035906020019184600183028401116401000000008311171561028f57600080fd5b91908080601f016020809104026020016040519081016040528093929190818152602001838380828437600081840152601f19601f820116905080830192505050505050509192919290803590602001906401000000008111156102f257600080fd5b82018360208201111561030457600080fd5b8035906020019184600183028401116401000000008311171561032657600080fd5b91908080601f016020809104026020016040519081016040528093929190818152602001838380828437600081840152601f19601f82011690508083019250505050505050919291929050505061081f565b604051808215151515815260200191505060405180910390f35b34801561039e57600080fd5b506103e1600480360360208110156103b557600080fd5b81019080803573ffffffffffffffffffffffffffffffffffffffff169060200190929190505050610b85565b604051808315151515815260200180602001828103825283818151815260200191508051906020019080838360005b8381101561042b578082015181840152602081019050610410565b50505050905090810190601f1680156104585780820380516001836020036101000a031916815260200191505b50935050505060405180910390f35b34801561047357600080fd5b506104a06004803603602081101561048a57600080fd5b8101908080359060200190929190505050610f27565b604051808273ffffffffffffffffffffffffffffffffffffffff1673ffffffffffffffffffffffffffffffffffffffff16815260200191505060405180910390f35b6060600280548060200260200160405190810160405280929190818152602001828054801561056657602002820191906000526020600020905b8160009054906101000a900473ffffffffffffffffffffffffffffffffffffffff1673ffffffffffffffffffffffffffffffffffffffff168152602001906001019080831161051c575b5050505050905090565b606080600061057d610f65565b600160008673ffffffffffffffffffffffffffffffffffffffff1673ffffffffffffffffffffffffffffffffffffffff16815260200190815260200160002060a060405190810160405290816000820160009054906101000a900473ffffffffffffffffffffffffffffffffffffffff1673ffffffffffffffffffffffffffffffffffffffff1673ffffffffffffffffffffffffffffffffffffffff168152602001600182018054600181600116156101000203166002900480601f0160208091040260200160405190810160405280929190818152602001828054600181600116156101000203166002900480156106b75780601f1061068c576101008083540402835291602001916106b7565b820191906000526020600020905b81548152906001019060200180831161069a57829003601f168201915b50505050508152602001600282018054600181600116156101000203166002900480601f0160208091040260200160405190810160405280929190818152602001828054600181600116156101000203166002900480156107595780601f1061072e57610100808354040283529160200191610759565b820191906000526020600020905b81548152906001019060200180831161073c57829003601f168201915b5050505050815260200160038201548152602001600482018054806020026020016040519081016040528092919081815260200182805480156107f157602002820191906000526020600020905b8160009054906101000a900473ffffffffffffffffffffffffffffffffffffffff1673ffffffffffffffffffffffffffffffffffffffff16815260200190600101908083116107a7575b5050505050815250509050806020015181604001518260600151829250819150935093509350509193909250565b60003373ffffffffffffffffffffffffffffffffffffffff16600160003373ffffffffffffffffffffffffffffffffffffffff1673ffffffffffffffffffffffffffffffffffffffff16815260200190815260200160002060000160009054906101000a900473ffffffffffffffffffffffffffffffffffffffff1673ffffffffffffffffffffffffffffffffffffffff1614151515610927576040517f08c379a00000000000000000000000000000000000000000000000000000000081526004018080602001828103825260178152602001807f596f7520616c726561647920726567697374657265642e00000000000000000081525060200191505060405180910390fd5b6060839050600081511115156109a5576040517f08c379a00000000000000000000000000000000000000000000000000000000081526004018080602001828103825260158152602001807f4e616d652063616e6e6f7420626520656d7074792e000000000000000000000081525060200191505060405180910390fd5b606060a0604051908101604052803373ffffffffffffffffffffffffffffffffffffffff1681526020018681526020018581526020016000815260200182815250600160003373ffffffffffffffffffffffffffffffffffffffff1673ffffffffffffffffffffffffffffffffffffffff16815260200190815260200160002060008201518160000160006101000a81548173ffffffffffffffffffffffffffffffffffffffff021916908373ffffffffffffffffffffffffffffffffffffffff1602179055506020820151816001019080519060200190610a88929190610fab565b506040820151816002019080519060200190610aa5929190610fab565b50606082015181600301556080820151816004019080519060200190610acc92919061102b565b5090505060023390806001815401808255809150509060018203906000526020600020016000909192909190916101000a81548173ffffffffffffffffffffffffffffffffffffffff021916908373ffffffffffffffffffffffffffffffffffffffff160217905550503373ffffffffffffffffffffffffffffffffffffffff167fa0ac4f59dabb0ddc4b8b883adda9e055e02c796b2cde2ed80fdb11a38f77e5c960405160405180910390a260019250505092915050565b60006060610b916110b5565b60408051908101604052806000151581526020016040805190810160405280600781526020017f4e6f20646174610000000000000000000000000000000000000000000000000081525081525090508373ffffffffffffffffffffffffffffffffffffffff16600160008673ffffffffffffffffffffffffffffffffffffffff1673ffffffffffffffffffffffffffffffffffffffff16815260200190815260200160002060000160009054906101000a900473ffffffffffffffffffffffffffffffffffffffff1673ffffffffffffffffffffffffffffffffffffffff161415610ed157600180610d0d57503373ffffffffffffffffffffffffffffffffffffffff166000803373ffffffffffffffffffffffffffffffffffffffff1673ffffffffffffffffffffffffffffffffffffffff16815260200190815260200160002060009054906101000a900473ffffffffffffffffffffffffffffffffffffffff1673ffffffffffffffffffffffffffffffffffffffff1614155b15610e8d5760018060008673ffffffffffffffffffffffffffffffffffffffff1673ffffffffffffffffffffffffffffffffffffffff16815260200190815260200160002060030160008282540192505081905550336000803373ffffffffffffffffffffffffffffffffffffffff1673ffffffffffffffffffffffffffffffffffffffff16815260200190815260200160002060006101000a81548173ffffffffffffffffffffffffffffffffffffffff021916908373ffffffffffffffffffffffffffffffffffffffff16021790555060018160000190151590811515815250506040805190810160405280600281526020017f4f4b00000000000000000000000000000000000000000000000000000000000081525081602001819052503373ffffffffffffffffffffffffffffffffffffffff168473ffffffffffffffffffffffffffffffffffffffff167f72c969a3287ea36868c4ccff5103a43b84c88936c5340ad55fee54091e9a579b60405160405180910390a3610ecc565b6040805190810160405280601281526020017f596f7520616c726561647920766f7465642e000000000000000000000000000081525081602001819052505b610f10565b6040805190810160405280601481526020017f43616e646964617465206e6f7420666f756e642e00000000000000000000000081525081602001819052505b806000015181602001518090509250925050915091565b600281815481101515610f3657fe5b906000526020600020016000915054906101000a900473ffffffffffffffffffffffffffffffffffffffff1681565b60a060405190810160405280600073ffffffffffffffffffffffffffffffffffffffff168152602001606081526020016060815260200160008152602001606081525090565b828054600181600116156101000203166002900490600052602060002090601f016020900481019282601f10610fec57805160ff191683800117855561101a565b8280016001018555821561101a579182015b82811115611019578251825591602001919060010190610ffe565b5b50905061102791906110d1565b5090565b8280548282559060005260206000209081019282156110a4579160200282015b828111156110a35782518260006101000a81548173ffffffffffffffffffffffffffffffffffffffff021916908373ffffffffffffffffffffffffffffffffffffffff1602179055509160200191906001019061104b565b5b5090506110b191906110f6565b5090565b6040805190810160405280600015158152602001606081525090565b6110f391905b808211156110ef5760008160009055506001016110d7565b5090565b90565b61113691905b8082111561113257600081816101000a81549073ffffffffffffffffffffffffffffffffffffffff0219169055506001016110fc565b5090565b9056fea165627a7a723058200a241a51fe209a0640455a950d5df9a576228ec343b85577e2b3c6cc2563de6d0029",
  "source": "pragma solidity ^0.5.0;\n\nlibrary ElectionStructs\n{\n    struct OperationResult\n    {\n        bool result;\n        string message;\n    }\n\n    struct Candidate {\n        address id;\n        string name;\n        string description;\n        uint256 votes;\n        address[] voters;\n    }\n}\n\ncontract Election\n{\n    mapping (address => address) voters;\n    mapping (address => ElectionStructs.Candidate) candidates;\n    address[] public candidatesList;\n\n    event CandidateRegistered (\n        address indexed _id\n    );\n\n    event VoteGiven(\n        address indexed _to,\n        address indexed _by\n    );\n\n    function getCandidates() public view returns (address[] memory)\n    {\n        return candidatesList;\n    }\n\n    function getCandidateInfo(address id) public view returns (string memory, string memory, uint256)\n    {\n        ElectionStructs.Candidate memory candy = candidates[id];\n\n        return (candy.name, candy.description, candy.votes);\n    }\n\n    function register(string memory name, string memory description) public returns (bool)\n    {\n        require(candidates[msg.sender].id != msg.sender, \"You already registered.\");\n\n        bytes memory nameBytes = bytes(name);\n        require(nameBytes.length > 0, \"Name cannot be empty.\");\n\n        address[] memory tmpVoters;\n\n        candidates[msg.sender] = ElectionStructs.Candidate(msg.sender, name, description, 0, tmpVoters);\n        candidatesList.push(msg.sender);\n\n        emit CandidateRegistered(msg.sender);\n\n        return true;\n    }\n\n    function vote(address id) public returns (bool, string memory)\n    {\n        ElectionStructs.OperationResult memory result = ElectionStructs.OperationResult(false, \"No data\");\n\n        if(candidates[id].id == id)\n        {\n            if(true || voters[msg.sender] != msg.sender)\n            {\n                candidates[id].votes += 1;\n                voters[msg.sender] = msg.sender;\n\n                result.result = true;\n                result.message = \"OK\";\n\n                emit VoteGiven(id, msg.sender);\n            }\n            else\n            {\n                result.message = \"You already voted.\";\n            }\n        }\n        else\n        {\n            result.message = \"Candidate not found.\";\n        }\n\n        return (result.result, result.message);\n    }\n}",
  "sourcePath": "/Users/alexeyskrypnik/Projects/_playground/dApp/election-be/contracts/Election.sol",
  "compiler": {
    "name": "solc",
    "version": "0.5.0+commit.1d4f565a.Emscripten.clang"
  },
  "schemaVersion": "3.0.0",
  "updatedAt": "2018-12-23T22:09:19.109Z",
  "devdoc": {
    "methods": {}
  },
  "userdoc": {
    "methods": {}
  }
}